{
  "_format": "hh-sol-artifact-1",
  "contractName": "VestraLedger",
  "sourceName": "contracts/VestraLedger.sol",
  "abi": [
    {
      "inputs": [],
      "stateMutability": "nonpayable",
      "type": "constructor"
    },
    {
      "anonymous": false,
      "inputs": [
        {
          "indexed": true,
          "internalType": "string",
          "name": "batchId",
          "type": "string"
        },
        {
          "indexed": true,
          "internalType": "bytes32",
          "name": "rootHash",
          "type": "bytes32"
        },
        {
          "indexed": false,
          "internalType": "uint256",
          "name": "timestamp",
          "type": "uint256"
        }
      ],
      "name": "BatchSubmitted",
      "type": "event"
    },
    {
      "inputs": [
        {
          "internalType": "string",
          "name": "batchId",
          "type": "string"
        }
      ],
      "name": "getBatchRoot",
      "outputs": [
        {
          "internalType": "bytes32",
          "name": "",
          "type": "bytes32"
        }
      ],
      "stateMutability": "view",
      "type": "function"
    },
    {
      "inputs": [
        {
          "internalType": "string",
          "name": "batchId",
          "type": "string"
        }
      ],
      "name": "getBatchTimestamp",
      "outputs": [
        {
          "internalType": "uint256",
          "name": "",
          "type": "uint256"
        }
      ],
      "stateMutability": "view",
      "type": "function"
    },
    {
      "inputs": [],
      "name": "owner",
      "outputs": [
        {
          "internalType": "address",
          "name": "",
          "type": "address"
        }
      ],
      "stateMutability": "view",
      "type": "function"
    },
    {
      "inputs": [
        {
          "internalType": "string",
          "name": "batchId",
          "type": "string"
        },
        {
          "internalType": "bytes32",
          "name": "rootHash",
          "type": "bytes32"
        }
      ],
      "name": "submitBatch",
      "outputs": [],
      "stateMutability": "nonpayable",
      "type": "function"
    }
  ],
  "bytecode": "0x608060405234801561001057600080fd5b50336000806101000a81548173ffffffffffffffffffffffffffffffffffffffff021916908373ffffffffffffffffffffffffffffffffffffffff16021790555061079d806100606000396000f3fe608060405234801561001057600080fd5b506004361061004c5760003560e01c80638da5cb5b146100515780639cd630341461006f578063b35ab9de1461009f578063b37561c9146100bb575b600080fd5b6100596100eb565b604051610066919061037d565b60405180910390f35b61008960048036038101906100849190610407565b61010f565b604051610096919061046d565b60405180910390f35b6100b960048036038101906100b491906104be565b61013a565b005b6100d560048036038101906100d09190610407565b610311565b6040516100e2919061052d565b60405180910390f35b60008054906101000a900473ffffffffffffffffffffffffffffffffffffffff1681565b600060028383604051610123929190610587565b908152602001604051809103902054905092915050565b60008054906101000a900473ffffffffffffffffffffffffffffffffffffffff1673ffffffffffffffffffffffffffffffffffffffff163373ffffffffffffffffffffffffffffffffffffffff16146101c8576040517f08c379a00000000000000000000000000000000000000000000000000000000081526004016101bf90610623565b60405180910390fd5b6000801b600184846040516101de929190610587565b9081526020016040518091039020541461022d576040517f08c379a0000000000000000000000000000000000000000000000000000000008152600401610224906106b5565b60405180910390fd5b6000801b8103610272576040517f08c379a000000000000000000000000000000000000000000000000000000000815260040161026990610747565b60405180910390fd5b8060018484604051610285929190610587565b90815260200160405180910390208190555042600284846040516102aa929190610587565b9081526020016040518091039020819055508083836040516102cd929190610587565b60405180910390207fa329f7f7fce33a09ef950fc7a26f5e4659604b258d433cdb1be8f10cfcdd5de842604051610304919061046d565b60405180910390a3505050565b600060018383604051610325929190610587565b908152602001604051809103902054905092915050565b600073ffffffffffffffffffffffffffffffffffffffff82169050919050565b60006103678261033c565b9050919050565b6103778161035c565b82525050565b6000602082019050610392600083018461036e565b92915050565b600080fd5b600080fd5b600080fd5b600080fd5b600080fd5b60008083601f8401126103c7576103c66103a2565b5b8235905067ffffffffffffffff8111156103e4576103e36103a7565b5b602083019150836001820283011115610400576103ff6103ac565b5b9250929050565b6000806020838503121561041e5761041d610398565b5b600083013567ffffffffffffffff81111561043c5761043b61039d565b5b610448858286016103b1565b92509250509250929050565b6000819050919050565b61046781610454565b82525050565b6000602082019050610482600083018461045e565b92915050565b6000819050919050565b61049b81610488565b81146104a657600080fd5b50565b6000813590506104b881610492565b92915050565b6000806000604084860312156104d7576104d6610398565b5b600084013567ffffffffffffffff8111156104f5576104f461039d565b5b610501868287016103b1565b93509350506020610514868287016104a9565b9150509250925092565b61052781610488565b82525050565b6000602082019050610542600083018461051e565b92915050565b600081905092915050565b82818337600083830152505050565b600061056e8385610548565b935061057b838584610553565b82840190509392505050565b6000610594828486610562565b91508190509392505050565b600082825260208201905092915050565b7f5665737472614c65646765723a20517579656e2074727579206361702063686960008201527f2064616e682063686f2063687520736f20687575000000000000000000000000602082015250565b600061060d6034836105a0565b9150610618826105b1565b604082019050919050565b6000602082019050818103600083015261063c81610600565b9050919050565b7f5665737472614c65646765723a204261746368206e61792064612064756f632060008201527f63686f74207472656e206368756f690000000000000000000000000000000000602082015250565b600061069f602f836105a0565b91506106aa82610643565b604082019050919050565b600060208201905081810360008301526106ce81610692565b9050919050565b7f5665737472614c65646765723a20526f6f742068617368206b686f6e6720746860008201527f652062616e67206b686f6e670000000000000000000000000000000000000000602082015250565b6000610731602c836105a0565b915061073c826106d5565b604082019050919050565b6000602082019050818103600083015261076081610724565b905091905056fea26469706673582212206e719bc9b1f1ae4d572b5a4805269c73fd312af28a53b2082085943350beedd964736f6c63430008140033",
  "linkReferences": {},
  "deployedLinkReferences": {}
}